{
  "contractName": "BloodBank",
  "abi": [
    {
      "inputs": [],
      "stateMutability": "nonpayable",
      "type": "constructor"
    },
    {
      "anonymous": false,
      "inputs": [
        {
          "indexed": false,
          "internalType": "address",
          "name": "admin",
          "type": "address"
        }
      ],
      "name": "AdminLoggedIn",
      "type": "event"
    },
    {
      "anonymous": false,
      "inputs": [
        {
          "indexed": false,
          "internalType": "address",
          "name": "donor",
          "type": "address"
        },
        {
          "indexed": false,
          "internalType": "enum BloodBank.BloodType",
          "name": "bloodType",
          "type": "uint8"
        },
        {
          "indexed": false,
          "internalType": "uint256",
          "name": "amount",
          "type": "uint256"
        }
      ],
      "name": "BloodDonated",
      "type": "event"
    },
    {
      "anonymous": false,
      "inputs": [
        {
          "indexed": false,
          "internalType": "address",
          "name": "patient",
          "type": "address"
        },
        {
          "indexed": false,
          "internalType": "enum BloodBank.BloodType",
          "name": "bloodType",
          "type": "uint8"
        }
      ],
      "name": "BloodRequested",
      "type": "event"
    },
    {
      "anonymous": false,
      "inputs": [
        {
          "indexed": false,
          "internalType": "address",
          "name": "patient",
          "type": "address"
        },
        {
          "components": [
            {
              "internalType": "bool",
              "name": "isResponded",
              "type": "bool"
            },
            {
              "internalType": "enum BloodBank.BloodType",
              "name": "bloodType",
              "type": "uint8"
            },
            {
              "internalType": "uint256",
              "name": "amount",
              "type": "uint256"
            },
            {
              "internalType": "bool",
              "name": "response",
              "type": "bool"
            }
          ],
          "indexed": false,
          "internalType": "struct BloodBank.Request",
          "name": "request",
          "type": "tuple"
        }
      ],
      "name": "BloodRequested",
      "type": "event"
    },
    {
      "anonymous": false,
      "inputs": [
        {
          "indexed": false,
          "internalType": "address",
          "name": "donor",
          "type": "address"
        }
      ],
      "name": "DonorPermissionGranted",
      "type": "event"
    },
    {
      "anonymous": false,
      "inputs": [
        {
          "indexed": false,
          "internalType": "address",
          "name": "donor",
          "type": "address"
        }
      ],
      "name": "DonorPermissionRevoked",
      "type": "event"
    },
    {
      "anonymous": false,
      "inputs": [
        {
          "indexed": false,
          "internalType": "address",
          "name": "donor",
          "type": "address"
        },
        {
          "indexed": false,
          "internalType": "string",
          "name": "name",
          "type": "string"
        },
        {
          "indexed": false,
          "internalType": "enum BloodBank.BloodType",
          "name": "bloodType",
          "type": "uint8"
        }
      ],
      "name": "DonorRegistered",
      "type": "event"
    },
    {
      "anonymous": false,
      "inputs": [
        {
          "indexed": false,
          "internalType": "address",
          "name": "hospital",
          "type": "address"
        },
        {
          "indexed": false,
          "internalType": "string",
          "name": "name",
          "type": "string"
        },
        {
          "indexed": false,
          "internalType": "address",
          "name": "location",
          "type": "address"
        }
      ],
      "name": "HospitalRegistered",
      "type": "event"
    },
    {
      "anonymous": false,
      "inputs": [
        {
          "indexed": false,
          "internalType": "address",
          "name": "patient",
          "type": "address"
        }
      ],
      "name": "PatientPermissionGranted",
      "type": "event"
    },
    {
      "anonymous": false,
      "inputs": [
        {
          "indexed": false,
          "internalType": "address",
          "name": "patient",
          "type": "address"
        }
      ],
      "name": "PatientPermissionRevoked",
      "type": "event"
    },
    {
      "anonymous": false,
      "inputs": [
        {
          "indexed": false,
          "internalType": "address",
          "name": "patient",
          "type": "address"
        },
        {
          "indexed": false,
          "internalType": "string",
          "name": "name",
          "type": "string"
        },
        {
          "indexed": false,
          "internalType": "enum BloodBank.BloodType",
          "name": "bloodType",
          "type": "uint8"
        }
      ],
      "name": "PatientRegistered",
      "type": "event"
    },
    {
      "anonymous": false,
      "inputs": [
        {
          "indexed": false,
          "internalType": "address",
          "name": "patient",
          "type": "address"
        },
        {
          "indexed": false,
          "internalType": "bool",
          "name": "response",
          "type": "bool"
        },
        {
          "indexed": false,
          "internalType": "enum BloodBank.BloodType",
          "name": "bloodType",
          "type": "uint8"
        },
        {
          "indexed": false,
          "internalType": "uint256",
          "name": "amount",
          "type": "uint256"
        }
      ],
      "name": "RequestResponded",
      "type": "event"
    },
    {
      "inputs": [],
      "name": "admin",
      "outputs": [
        {
          "internalType": "address",
          "name": "",
          "type": "address"
        }
      ],
      "stateMutability": "view",
      "type": "function",
      "constant": true
    },
    {
      "inputs": [
        {
          "internalType": "address",
          "name": "",
          "type": "address"
        }
      ],
      "name": "allowedDonors",
      "outputs": [
        {
          "internalType": "bool",
          "name": "",
          "type": "bool"
        }
      ],
      "stateMutability": "view",
      "type": "function",
      "constant": true
    },
    {
      "inputs": [
        {
          "internalType": "address",
          "name": "",
          "type": "address"
        }
      ],
      "name": "allowedPatients",
      "outputs": [
        {
          "internalType": "bool",
          "name": "",
          "type": "bool"
        }
      ],
      "stateMutability": "view",
      "type": "function",
      "constant": true
    },
    {
      "inputs": [
        {
          "internalType": "enum BloodBank.BloodType",
          "name": "",
          "type": "uint8"
        }
      ],
      "name": "bloodInventory",
      "outputs": [
        {
          "internalType": "uint256",
          "name": "",
          "type": "uint256"
        }
      ],
      "stateMutability": "view",
      "type": "function",
      "constant": true
    },
    {
      "inputs": [
        {
          "internalType": "address",
          "name": "",
          "type": "address"
        }
      ],
      "name": "bloodRequests",
      "outputs": [
        {
          "internalType": "bool",
          "name": "",
          "type": "bool"
        }
      ],
      "stateMutability": "view",
      "type": "function",
      "constant": true
    },
    {
      "inputs": [
        {
          "internalType": "uint256",
          "name": "",
          "type": "uint256"
        }
      ],
      "name": "donorAddresses",
      "outputs": [
        {
          "internalType": "address",
          "name": "",
          "type": "address"
        }
      ],
      "stateMutability": "view",
      "type": "function",
      "constant": true
    },
    {
      "inputs": [
        {
          "internalType": "address",
          "name": "",
          "type": "address"
        },
        {
          "internalType": "enum BloodBank.BloodType",
          "name": "",
          "type": "uint8"
        }
      ],
      "name": "donorBalances",
      "outputs": [
        {
          "internalType": "uint256",
          "name": "",
          "type": "uint256"
        }
      ],
      "stateMutability": "view",
      "type": "function",
      "constant": true
    },
    {
      "inputs": [
        {
          "internalType": "address",
          "name": "",
          "type": "address"
        }
      ],
      "name": "donors",
      "outputs": [
        {
          "internalType": "string",
          "name": "name",
          "type": "string"
        },
        {
          "internalType": "enum BloodBank.BloodType",
          "name": "bloodType",
          "type": "uint8"
        },
        {
          "internalType": "bool",
          "name": "isRegistered",
          "type": "bool"
        }
      ],
      "stateMutability": "view",
      "type": "function",
      "constant": true
    },
    {
      "inputs": [
        {
          "internalType": "address",
          "name": "",
          "type": "address"
        }
      ],
      "name": "hospitals",
      "outputs": [
        {
          "internalType": "string",
          "name": "name",
          "type": "string"
        },
        {
          "internalType": "address",
          "name": "location",
          "type": "address"
        },
        {
          "internalType": "bool",
          "name": "isRegistered",
          "type": "bool"
        }
      ],
      "stateMutability": "view",
      "type": "function",
      "constant": true
    },
    {
      "inputs": [
        {
          "internalType": "uint256",
          "name": "",
          "type": "uint256"
        }
      ],
      "name": "patientAddresses",
      "outputs": [
        {
          "internalType": "address",
          "name": "",
          "type": "address"
        }
      ],
      "stateMutability": "view",
      "type": "function",
      "constant": true
    },
    {
      "inputs": [
        {
          "internalType": "address",
          "name": "",
          "type": "address"
        },
        {
          "internalType": "enum BloodBank.BloodType",
          "name": "",
          "type": "uint8"
        },
        {
          "internalType": "uint256",
          "name": "",
          "type": "uint256"
        }
      ],
      "name": "patientRequests",
      "outputs": [
        {
          "internalType": "bool",
          "name": "isResponded",
          "type": "bool"
        },
        {
          "internalType": "enum BloodBank.BloodType",
          "name": "bloodType",
          "type": "uint8"
        },
        {
          "internalType": "uint256",
          "name": "amount",
          "type": "uint256"
        },
        {
          "internalType": "bool",
          "name": "response",
          "type": "bool"
        }
      ],
      "stateMutability": "view",
      "type": "function",
      "constant": true
    },
    {
      "inputs": [
        {
          "internalType": "address",
          "name": "",
          "type": "address"
        },
        {
          "internalType": "uint256",
          "name": "",
          "type": "uint256"
        }
      ],
      "name": "patientResponses",
      "outputs": [
        {
          "internalType": "bool",
          "name": "isResponded",
          "type": "bool"
        },
        {
          "internalType": "enum BloodBank.BloodType",
          "name": "bloodType",
          "type": "uint8"
        },
        {
          "internalType": "uint256",
          "name": "amount",
          "type": "uint256"
        },
        {
          "internalType": "bool",
          "name": "response",
          "type": "bool"
        }
      ],
      "stateMutability": "view",
      "type": "function",
      "constant": true
    },
    {
      "inputs": [
        {
          "internalType": "address",
          "name": "",
          "type": "address"
        }
      ],
      "name": "patients",
      "outputs": [
        {
          "internalType": "string",
          "name": "name",
          "type": "string"
        },
        {
          "internalType": "enum BloodBank.BloodType",
          "name": "bloodType",
          "type": "uint8"
        },
        {
          "internalType": "bool",
          "name": "isRegistered",
          "type": "bool"
        }
      ],
      "stateMutability": "view",
      "type": "function",
      "constant": true
    },
    {
      "inputs": [],
      "name": "totalBloodDonated",
      "outputs": [
        {
          "internalType": "uint256",
          "name": "",
          "type": "uint256"
        }
      ],
      "stateMutability": "view",
      "type": "function",
      "constant": true
    },
    {
      "inputs": [],
      "name": "totalDonors",
      "outputs": [
        {
          "internalType": "uint256",
          "name": "",
          "type": "uint256"
        }
      ],
      "stateMutability": "view",
      "type": "function",
      "constant": true
    },
    {
      "inputs": [],
      "name": "totalHospitals",
      "outputs": [
        {
          "internalType": "uint256",
          "name": "",
          "type": "uint256"
        }
      ],
      "stateMutability": "view",
      "type": "function",
      "constant": true
    },
    {
      "inputs": [],
      "name": "totalPatients",
      "outputs": [
        {
          "internalType": "uint256",
          "name": "",
          "type": "uint256"
        }
      ],
      "stateMutability": "view",
      "type": "function",
      "constant": true
    },
    {
      "inputs": [],
      "name": "adminLogin",
      "outputs": [
        {
          "internalType": "bool",
          "name": "",
          "type": "bool"
        }
      ],
      "stateMutability": "nonpayable",
      "type": "function"
    },
    {
      "inputs": [
        {
          "internalType": "address",
          "name": "donorAddress",
          "type": "address"
        }
      ],
      "name": "grantDonorPermission",
      "outputs": [],
      "stateMutability": "nonpayable",
      "type": "function"
    },
    {
      "inputs": [
        {
          "internalType": "address",
          "name": "donorAddress",
          "type": "address"
        }
      ],
      "name": "revokeDonorPermission",
      "outputs": [],
      "stateMutability": "nonpayable",
      "type": "function"
    },
    {
      "inputs": [
        {
          "internalType": "address",
          "name": "donorAddress",
          "type": "address"
        }
      ],
      "name": "isDonorAllowed",
      "outputs": [
        {
          "internalType": "bool",
          "name": "",
          "type": "bool"
        }
      ],
      "stateMutability": "view",
      "type": "function",
      "constant": true
    },
    {
      "inputs": [
        {
          "internalType": "address",
          "name": "patientAddress",
          "type": "address"
        }
      ],
      "name": "grantPatientPermission",
      "outputs": [],
      "stateMutability": "nonpayable",
      "type": "function"
    },
    {
      "inputs": [
        {
          "internalType": "address",
          "name": "patientAddress",
          "type": "address"
        }
      ],
      "name": "revokePatientPermission",
      "outputs": [],
      "stateMutability": "nonpayable",
      "type": "function"
    },
    {
      "inputs": [
        {
          "internalType": "address",
          "name": "patientAddress",
          "type": "address"
        }
      ],
      "name": "isPatientAllowed",
      "outputs": [
        {
          "internalType": "bool",
          "name": "",
          "type": "bool"
        }
      ],
      "stateMutability": "view",
      "type": "function",
      "constant": true
    },
    {
      "inputs": [
        {
          "internalType": "address",
          "name": "patientAddress",
          "type": "address"
        },
        {
          "internalType": "string",
          "name": "name",
          "type": "string"
        },
        {
          "internalType": "enum BloodBank.BloodType",
          "name": "bloodType",
          "type": "uint8"
        }
      ],
      "name": "addPatient",
      "outputs": [],
      "stateMutability": "nonpayable",
      "type": "function"
    },
    {
      "inputs": [
        {
          "internalType": "address",
          "name": "hospitalAddress",
          "type": "address"
        },
        {
          "internalType": "string",
          "name": "name",
          "type": "string"
        },
        {
          "internalType": "address",
          "name": "location",
          "type": "address"
        }
      ],
      "name": "addHospital",
      "outputs": [],
      "stateMutability": "nonpayable",
      "type": "function"
    },
    {
      "inputs": [
        {
          "internalType": "string",
          "name": "name",
          "type": "string"
        },
        {
          "internalType": "enum BloodBank.BloodType",
          "name": "bloodType",
          "type": "uint8"
        }
      ],
      "name": "registerAsDonor",
      "outputs": [],
      "stateMutability": "nonpayable",
      "type": "function"
    },
    {
      "inputs": [
        {
          "internalType": "string",
          "name": "name",
          "type": "string"
        },
        {
          "internalType": "enum BloodBank.BloodType",
          "name": "bloodType",
          "type": "uint8"
        }
      ],
      "name": "registerAsPatient",
      "outputs": [],
      "stateMutability": "nonpayable",
      "type": "function"
    },
    {
      "inputs": [
        {
          "internalType": "address",
          "name": "hospitalAddress",
          "type": "address"
        }
      ],
      "name": "locateHospitalToDonate",
      "outputs": [
        {
          "internalType": "string",
          "name": "name",
          "type": "string"
        },
        {
          "internalType": "address",
          "name": "location",
          "type": "address"
        }
      ],
      "stateMutability": "view",
      "type": "function",
      "constant": true
    },
    {
      "inputs": [
        {
          "internalType": "enum BloodBank.BloodType",
          "name": "bloodType",
          "type": "uint8"
        },
        {
          "internalType": "uint256",
          "name": "amount",
          "type": "uint256"
        }
      ],
      "name": "donateBlood",
      "outputs": [],
      "stateMutability": "nonpayable",
      "type": "function"
    },
    {
      "inputs": [],
      "name": "getTotalBloodDonated",
      "outputs": [
        {
          "internalType": "uint256",
          "name": "",
          "type": "uint256"
        }
      ],
      "stateMutability": "view",
      "type": "function",
      "constant": true
    },
    {
      "inputs": [
        {
          "internalType": "enum BloodBank.BloodType",
          "name": "bloodType",
          "type": "uint8"
        }
      ],
      "name": "getBloodInventory",
      "outputs": [
        {
          "internalType": "uint256",
          "name": "",
          "type": "uint256"
        }
      ],
      "stateMutability": "view",
      "type": "function",
      "constant": true
    },
    {
      "inputs": [
        {
          "internalType": "enum BloodBank.BloodType",
          "name": "bloodType",
          "type": "uint8"
        },
        {
          "internalType": "uint256",
          "name": "amount",
          "type": "uint256"
        }
      ],
      "name": "requestBlood",
      "outputs": [],
      "stateMutability": "nonpayable",
      "type": "function"
    },
    {
      "inputs": [
        {
          "internalType": "address",
          "name": "patientAddress",
          "type": "address"
        },
        {
          "internalType": "enum BloodBank.BloodType",
          "name": "bloodType",
          "type": "uint8"
        }
      ],
      "name": "getPatientRequests",
      "outputs": [
        {
          "components": [
            {
              "internalType": "bool",
              "name": "isResponded",
              "type": "bool"
            },
            {
              "internalType": "enum BloodBank.BloodType",
              "name": "bloodType",
              "type": "uint8"
            },
            {
              "internalType": "uint256",
              "name": "amount",
              "type": "uint256"
            },
            {
              "internalType": "bool",
              "name": "response",
              "type": "bool"
            }
          ],
          "internalType": "struct BloodBank.Request[]",
          "name": "",
          "type": "tuple[]"
        }
      ],
      "stateMutability": "view",
      "type": "function",
      "constant": true
    },
    {
      "inputs": [
        {
          "internalType": "address",
          "name": "patientAddress",
          "type": "address"
        },
        {
          "internalType": "enum BloodBank.BloodType",
          "name": "bloodType",
          "type": "uint8"
        },
        {
          "internalType": "bool",
          "name": "response",
          "type": "bool"
        }
      ],
      "name": "respondToRequest",
      "outputs": [],
      "stateMutability": "nonpayable",
      "type": "function"
    },
    {
      "inputs": [
        {
          "internalType": "address",
          "name": "patientAddress",
          "type": "address"
        }
      ],
      "name": "getPatientResponses",
      "outputs": [
        {
          "components": [
            {
              "internalType": "bool",
              "name": "isResponded",
              "type": "bool"
            },
            {
              "internalType": "enum BloodBank.BloodType",
              "name": "bloodType",
              "type": "uint8"
            },
            {
              "internalType": "uint256",
              "name": "amount",
              "type": "uint256"
            },
            {
              "internalType": "bool",
              "name": "response",
              "type": "bool"
            }
          ],
          "internalType": "struct BloodBank.Request[]",
          "name": "",
          "type": "tuple[]"
        }
      ],
      "stateMutability": "view",
      "type": "function",
      "constant": true
    },
    {
      "inputs": [],
      "name": "getRegisteredUsers",
      "outputs": [
        {
          "internalType": "address[]",
          "name": "registeredDonors",
          "type": "address[]"
        },
        {
          "internalType": "address[]",
          "name": "registeredPatients",
          "type": "address[]"
        }
      ],
      "stateMutability": "view",
      "type": "function",
      "constant": true
    },
    {
      "inputs": [
        {
          "internalType": "address",
          "name": "donorAddress",
          "type": "address"
        }
      ],
      "name": "removeDonor",
      "outputs": [],
      "stateMutability": "nonpayable",
      "type": "function"
    },
    {
      "inputs": [
        {
          "internalType": "address",
          "name": "patientAddress",
          "type": "address"
        }
      ],
      "name": "removePatient",
      "outputs": [],
      "stateMutability": "nonpayable",
      "type": "function"
    }
  ],
  "bytecode": "0x608060405234801561001057600080fd5b50336000806101000a81548173ffffffffffffffffffffffffffffffffffffffff021916908373ffffffffffffffffffffffffffffffffffffffff1602179055506147d3806100606000396000f3fe608060405234801561001057600080fd5b506004361061023d5760003560e01c80637d0d62571161013b578063b9de02c0116100b8578063deb5ef091161007c578063deb5ef0914610750578063e7620e771461076e578063f093cf801461079e578063f1744bb1146107d0578063f851a440146107ee5761023d565b8063b9de02c014610698578063ba3e7aae146106c8578063c0bca7df146106e4578063ca0cdea814610702578063da0b7c10146107345761023d565b80639b71377f116100ff5780639b71377f146105d0578063a7f77f6614610600578063b40f16911461061c578063b753098b1461064c578063b8a2d442146106685761023d565b80637d0d6257146105445780637e4ed03d14610560578063894b8f0c1461057c578063958b865c146105985780639b0652b4146105b45761023d565b8063271473d1116101c95780636d661d531161018d5780636d661d53146104795780637073c0721461049557806375844cd1146104b457806376cd7083146104e457806378771fb3146105145761023d565b8063271473d1146103835780632b2aee5d146103b35780632bac19a2146103e3578063440bfe561461041657806345a7d1c7146104495761023d565b80631927b768116102105780631927b768146102dc5780631e9e2290146102fa57806325c302e414610316578063265c30c91461033457806326838ae3146103525761023d565b806303a14b4214610242578063063da53a1461025e5780630869cfbc1461027a5780630a1c8e68146102ac575b600080fd5b61025c600480360381019061025791906136dc565b61080c565b005b610278600480360381019061027391906136dc565b61092a565b005b610294600480360381019061028f91906136dc565b610a49565b6040516102a3939291906141c1565b60405180910390f35b6102c660048036038101906102c191906136dc565b610b15565b6040516102d391906140f3565b60405180910390f35b6102e4610b6b565b6040516102f1919061437f565b60405180910390f35b610314600480360381019061030f9190613741565b610b71565b005b61031e6110a2565b60405161032b919061437f565b60405180910390f35b61033c6110a8565b604051610349919061437f565b60405180910390f35b61036c600480360381019061036791906136dc565b6110ae565b60405161037a929190614153565b60405180910390f35b61039d600480360381019061039891906136dc565b61127b565b6040516103aa91906140d1565b60405180910390f35b6103cd60048036038101906103c891906139a2565b6113e0565b6040516103da9190613f5e565b60405180910390f35b6103fd60048036038101906103f89190613790565b61141f565b60405161040d949392919061410e565b60405180910390f35b610430600480360381019061042b91906138ad565b6114a0565b604051610440949392919061410e565b60405180910390f35b610463600480360381019061045e91906136dc565b611514565b60405161047091906140f3565b60405180910390f35b610493600480360381019061048e9190613912565b61156a565b005b61049d611727565b6040516104ab92919061409a565b60405180910390f35b6104ce60048036038101906104c991906138e9565b611846565b6040516104db919061437f565b60405180910390f35b6104fe60048036038101906104f991906136dc565b61185e565b60405161050b91906140f3565b60405180910390f35b61052e60048036038101906105299190613705565b61187e565b60405161053b919061437f565b60405180910390f35b61055e600480360381019061055991906136dc565b6118a3565b005b61057a600480360381019061057591906136dc565b611cd3565b005b61059660048036038101906105919190613912565b611df1565b005b6105b260048036038101906105ad91906136dc565b6120b1565b005b6105ce60048036038101906105c9919061394e565b6121d0565b005b6105ea60048036038101906105e59190613705565b6123b5565b6040516105f791906140d1565b60405180910390f35b61061a600480360381019061061591906136dc565b612688565b005b610636600480360381019061063191906139a2565b612ab8565b6040516106439190613f5e565b60405180910390f35b6106666004803603810190610661919061394e565b612af7565b005b610682600480360381019061067d91906138e9565b612cdc565b60405161068f919061437f565b60405180910390f35b6106b260048036038101906106ad91906136dc565b612d69565b6040516106bf91906140f3565b60405180910390f35b6106e260048036038101906106dd91906137df565b612d89565b005b6106ec612ff9565b6040516106f991906140f3565b60405180910390f35b61071c600480360381019061071791906136dc565b613039565b60405161072b939291906141c1565b60405180910390f35b61074e60048036038101906107499190613846565b613105565b005b6107586133a6565b604051610765919061437f565b60405180910390f35b610788600480360381019061078391906136dc565b6133ac565b60405161079591906140f3565b60405180910390f35b6107b860048036038101906107b391906136dc565b6133cc565b6040516107c793929190614183565b60405180910390f35b6107d86134ab565b6040516107e5919061437f565b60405180910390f35b6107f66134b5565b6040516108039190613f5e565b60405180910390f35b600a60008273ffffffffffffffffffffffffffffffffffffffff1673ffffffffffffffffffffffffffffffffffffffff16815260200190815260200160002060009054906101000a900460ff16610898576040517f08c379a000000000000000000000000000000000000000000000000000000000815260040161088f9061431f565b60405180910390fd5b6000600a60008373ffffffffffffffffffffffffffffffffffffffff1673ffffffffffffffffffffffffffffffffffffffff16815260200190815260200160002060006101000a81548160ff0219169083151502179055507f0d75f4177f5c2ba083d1f9ed47e125806407c82e261facc56bfed13d3295f0858160405161091f9190613f5e565b60405180910390a150565b600a60008273ffffffffffffffffffffffffffffffffffffffff1673ffffffffffffffffffffffffffffffffffffffff16815260200190815260200160002060009054906101000a900460ff16156109b7576040517f08c379a00000000000000000000000000000000000000000000000000000000081526004016109ae9061423f565b60405180910390fd5b6001600a60008373ffffffffffffffffffffffffffffffffffffffff1673ffffffffffffffffffffffffffffffffffffffff16815260200190815260200160002060006101000a81548160ff0219169083151502179055507f6470588e45881bf48bc4406748c2c44819598eae7041fca47408b90f441242c681604051610a3e9190613f5e565b60405180910390a150565b6008602052806000526040600020600091509050806000018054610a6c906145ec565b80601f0160208091040260200160405190810160405280929190818152602001828054610a98906145ec565b8015610ae55780601f10610aba57610100808354040283529160200191610ae5565b820191906000526020600020905b815481529060010190602001808311610ac857829003601f168201915b5050505050908060010160009054906101000a900460ff16908060010160019054906101000a900460ff16905083565b6000600a60008373ffffffffffffffffffffffffffffffffffffffff1673ffffffffffffffffffffffffffffffffffffffff16815260200190815260200160002060009054906101000a900460ff169050919050565b60045481565b600860008473ffffffffffffffffffffffffffffffffffffffff1673ffffffffffffffffffffffffffffffffffffffff16815260200190815260200160002060010160019054906101000a900460ff16610c00576040517f08c379a0000000000000000000000000000000000000000000000000000000008152600401610bf7906142bf565b60405180910390fd5b6000600f60008573ffffffffffffffffffffffffffffffffffffffff1673ffffffffffffffffffffffffffffffffffffffff1681526020019081526020016000206000846003811115610c7c577f4e487b7100000000000000000000000000000000000000000000000000000000600052602160045260246000fd5b6003811115610cb4577f4e487b7100000000000000000000000000000000000000000000000000000000600052602160045260246000fd5b81526020019081526020016000208054905011610d06576040517f08c379a0000000000000000000000000000000000000000000000000000000008152600401610cfd906141ff565b60405180910390fd5b6000600f60008573ffffffffffffffffffffffffffffffffffffffff1673ffffffffffffffffffffffffffffffffffffffff1681526020019081526020016000206000846003811115610d82577f4e487b7100000000000000000000000000000000000000000000000000000000600052602160045260246000fd5b6003811115610dba577f4e487b7100000000000000000000000000000000000000000000000000000000600052602160045260246000fd5b81526020019081526020016000206001600f60008773ffffffffffffffffffffffffffffffffffffffff1673ffffffffffffffffffffffffffffffffffffffff1681526020019081526020016000206000866003811115610e44577f4e487b7100000000000000000000000000000000000000000000000000000000600052602160045260246000fd5b6003811115610e7c577f4e487b7100000000000000000000000000000000000000000000000000000000600052602160045260246000fd5b815260200190815260200160002080549050610e9891906144df565b81548110610ecf577f4e487b7100000000000000000000000000000000000000000000000000000000600052603260045260246000fd5b9060005260206000209060030201905060018160000160006101000a81548160ff021916908315150217905550818160020160006101000a81548160ff021916908315150217905550601060008573ffffffffffffffffffffffffffffffffffffffff1673ffffffffffffffffffffffffffffffffffffffff1681526020019081526020016000208190806001815401808255809150506001900390600052602060002090600302016000909190919091506000820160009054906101000a900460ff168160000160006101000a81548160ff0219169083151502179055506000820160019054906101000a900460ff168160000160016101000a81548160ff0219169083600381111561100c577f4e487b7100000000000000000000000000000000000000000000000000000000600052602160045260246000fd5b0217905550600182015481600101556002820160009054906101000a900460ff168160020160006101000a81548160ff02191690831515021790555050507f0cb0eecdc646f95300ff59a3649e7f113854102f55590a186a114bdea39a68d884838360000160019054906101000a900460ff1684600101546040516110949493929190613f79565b60405180910390a150505050565b60015481565b60035481565b60606000600960008473ffffffffffffffffffffffffffffffffffffffff1673ffffffffffffffffffffffffffffffffffffffff16815260200190815260200160002060010160149054906101000a900460ff16611141576040517f08c379a0000000000000000000000000000000000000000000000000000000008152600401611138906142df565b60405180910390fd5b600960008473ffffffffffffffffffffffffffffffffffffffff1673ffffffffffffffffffffffffffffffffffffffff168152602001908152602001600020600001600960008573ffffffffffffffffffffffffffffffffffffffff1673ffffffffffffffffffffffffffffffffffffffff16815260200190815260200160002060010160009054906101000a900473ffffffffffffffffffffffffffffffffffffffff168180546111f2906145ec565b80601f016020809104026020016040519081016040528092919081815260200182805461121e906145ec565b801561126b5780601f106112405761010080835404028352916020019161126b565b820191906000526020600020905b81548152906001019060200180831161124e57829003601f168201915b5050505050915091509150915091565b6060601060008373ffffffffffffffffffffffffffffffffffffffff1673ffffffffffffffffffffffffffffffffffffffff168152602001908152602001600020805480602002602001604051908101604052809291908181526020016000905b828210156113d557838290600052602060002090600302016040518060800160405290816000820160009054906101000a900460ff161515151581526020016000820160019054906101000a900460ff166003811115611365577f4e487b7100000000000000000000000000000000000000000000000000000000600052602160045260246000fd5b600381111561139d577f4e487b7100000000000000000000000000000000000000000000000000000000600052602160045260246000fd5b8152602001600182015481526020016002820160009054906101000a900460ff161515151581525050815260200190600101906112dc565b505050509050919050565b600581815481106113f057600080fd5b906000526020600020016000915054906101000a900473ffffffffffffffffffffffffffffffffffffffff1681565b600f602052826000526040600020602052816000526040600020818154811061144757600080fd5b906000526020600020906003020160009250925050508060000160009054906101000a900460ff16908060000160019054906101000a900460ff16908060010154908060020160009054906101000a900460ff16905084565b601060205281600052604060002081815481106114bc57600080fd5b9060005260206000209060030201600091509150508060000160009054906101000a900460ff16908060000160019054906101000a900460ff16908060010154908060020160009054906101000a900460ff16905084565b6000600b60008373ffffffffffffffffffffffffffffffffffffffff1673ffffffffffffffffffffffffffffffffffffffff16815260200190815260200160002060009054906101000a900460ff169050919050565b600760003373ffffffffffffffffffffffffffffffffffffffff1673ffffffffffffffffffffffffffffffffffffffff16815260200190815260200160002060010160019054906101000a900460ff166115f9576040517f08c379a00000000000000000000000000000000000000000000000000000000081526004016115f09061425f565b60405180910390fd5b600e60003373ffffffffffffffffffffffffffffffffffffffff1673ffffffffffffffffffffffffffffffffffffffff1681526020019081526020016000206000836003811115611673577f4e487b7100000000000000000000000000000000000000000000000000000000600052602160045260246000fd5b60038111156116ab577f4e487b7100000000000000000000000000000000000000000000000000000000600052602160045260246000fd5b815260200190815260200160002060008154809291906116ca9061461e565b919050555080600460008282546116e19190614489565b925050819055507fc2f0fc24f51c0d69bcb224db3f20a529782afccd9cf749ccf983ae933ed08b8133838360405161171b93929190613fbe565b60405180910390a15050565b60608060056006818054806020026020016040519081016040528092919081815260200182805480156117af57602002820191906000526020600020905b8160009054906101000a900473ffffffffffffffffffffffffffffffffffffffff1673ffffffffffffffffffffffffffffffffffffffff1681526020019060010190808311611765575b505050505091508080548060200260200160405190810160405280929190818152602001828054801561183757602002820191906000526020600020905b8160009054906101000a900473ffffffffffffffffffffffffffffffffffffffff1673ffffffffffffffffffffffffffffffffffffffff16815260200190600101908083116117ed575b50505050509050915091509091565b600d6020528060005260406000206000915090505481565b600a6020528060005260406000206000915054906101000a900460ff1681565b600e602052816000526040600020602052806000526040600020600091509150505481565b60008054906101000a900473ffffffffffffffffffffffffffffffffffffffff1673ffffffffffffffffffffffffffffffffffffffff163373ffffffffffffffffffffffffffffffffffffffff1614611931576040517f08c379a00000000000000000000000000000000000000000000000000000000081526004016119289061421f565b60405180910390fd5b600860008273ffffffffffffffffffffffffffffffffffffffff1673ffffffffffffffffffffffffffffffffffffffff16815260200190815260200160002060010160019054906101000a900460ff166119c0576040517f08c379a00000000000000000000000000000000000000000000000000000000081526004016119b7906142bf565b60405180910390fd5b600860008273ffffffffffffffffffffffffffffffffffffffff1673ffffffffffffffffffffffffffffffffffffffff16815260200190815260200160002060008082016000611a1091906134d9565b6001820160006101000a81549060ff02191690556001820160016101000a81549060ff021916905550506000600b60008373ffffffffffffffffffffffffffffffffffffffff1673ffffffffffffffffffffffffffffffffffffffff16815260200190815260200160002060006101000a81548160ff02191690831515021790555060005b600680549050811015611cb7578173ffffffffffffffffffffffffffffffffffffffff1660068281548110611af3577f4e487b7100000000000000000000000000000000000000000000000000000000600052603260045260246000fd5b9060005260206000200160009054906101000a900473ffffffffffffffffffffffffffffffffffffffff1673ffffffffffffffffffffffffffffffffffffffff161415611ca45760066001600680549050611b4e91906144df565b81548110611b85577f4e487b7100000000000000000000000000000000000000000000000000000000600052603260045260246000fd5b9060005260206000200160009054906101000a900473ffffffffffffffffffffffffffffffffffffffff1660068281548110611bea577f4e487b7100000000000000000000000000000000000000000000000000000000600052603260045260246000fd5b9060005260206000200160006101000a81548173ffffffffffffffffffffffffffffffffffffffff021916908373ffffffffffffffffffffffffffffffffffffffff1602179055506006805480611c6a577f4e487b7100000000000000000000000000000000000000000000000000000000600052603160045260246000fd5b6001900381819060005260206000200160006101000a81549073ffffffffffffffffffffffffffffffffffffffff02191690559055611cb7565b8080611caf9061461e565b915050611a95565b5060026000815480929190611ccb906145c2565b919050555050565b600b60008273ffffffffffffffffffffffffffffffffffffffff1673ffffffffffffffffffffffffffffffffffffffff16815260200190815260200160002060009054906101000a900460ff16611d5f576040517f08c379a0000000000000000000000000000000000000000000000000000000008152600401611d56906142ff565b60405180910390fd5b6000600b60008373ffffffffffffffffffffffffffffffffffffffff1673ffffffffffffffffffffffffffffffffffffffff16815260200190815260200160002060006101000a81548160ff0219169083151502179055507f50b4f48c2b29bd3719894342dd2c27e3890b43d1fd5353022887ba15c8a8cf3e81604051611de69190613f5e565b60405180910390a150565b600860003373ffffffffffffffffffffffffffffffffffffffff1673ffffffffffffffffffffffffffffffffffffffff16815260200190815260200160002060010160019054906101000a900460ff16611e80576040517f08c379a0000000000000000000000000000000000000000000000000000000008152600401611e779061429f565b60405180910390fd5b60006040518060800160405280600015158152602001846003811115611ecf577f4e487b7100000000000000000000000000000000000000000000000000000000600052602160045260246000fd5b8152602001838152602001600015158152509050600f60003373ffffffffffffffffffffffffffffffffffffffff1673ffffffffffffffffffffffffffffffffffffffff168152602001908152602001600020600082602001516003811115611f61577f4e487b7100000000000000000000000000000000000000000000000000000000600052602160045260246000fd5b6003811115611f99577f4e487b7100000000000000000000000000000000000000000000000000000000600052602160045260246000fd5b815260200190815260200160002081908060018154018082558091505060019003906000526020600020906003020160009091909190915060008201518160000160006101000a81548160ff02191690831515021790555060208201518160000160016101000a81548160ff02191690836003811115612042577f4e487b7100000000000000000000000000000000000000000000000000000000600052602160045260246000fd5b02179055506040820151816001015560608201518160020160006101000a81548160ff02191690831515021790555050507fe0fd22686cb831b16f1f01cedcbd518d72c259a8bd2bca74f4ffe066159b783f33826040516120a4929190614071565b60405180910390a1505050565b600b60008273ffffffffffffffffffffffffffffffffffffffff1673ffffffffffffffffffffffffffffffffffffffff16815260200190815260200160002060009054906101000a900460ff161561213e576040517f08c379a00000000000000000000000000000000000000000000000000000000081526004016121359061433f565b60405180910390fd5b6001600b60008373ffffffffffffffffffffffffffffffffffffffff1673ffffffffffffffffffffffffffffffffffffffff16815260200190815260200160002060006101000a81548160ff0219169083151502179055507f173926a5cd76513113da8c73e33cd759abb380c3fa117a8e50bbe24fd69e71b1816040516121c59190613f5e565b60405180910390a150565b604051806060016040528083815260200182600381111561221a577f4e487b7100000000000000000000000000000000000000000000000000000000600052602160045260246000fd5b815260200160011515815250600760003373ffffffffffffffffffffffffffffffffffffffff1673ffffffffffffffffffffffffffffffffffffffff1681526020019081526020016000206000820151816000019080519060200190612281929190613519565b5060208201518160010160006101000a81548160ff021916908360038111156122d3577f4e487b7100000000000000000000000000000000000000000000000000000000600052602160045260246000fd5b021790555060408201518160010160016101000a81548160ff0219169083151502179055509050506005339080600181540180825580915050600190039060005260206000200160009091909190916101000a81548173ffffffffffffffffffffffffffffffffffffffff021916908373ffffffffffffffffffffffffffffffffffffffff160217905550600160008154809291906123719061461e565b91905055507f779163cb568883acd4f53ecd8b9b240d9167817266c43fa521301a32e8fd290b3383836040516123a993929190614033565b60405180910390a15050565b60606000600f60008573ffffffffffffffffffffffffffffffffffffffff1673ffffffffffffffffffffffffffffffffffffffff1681526020019081526020016000206000846003811115612433577f4e487b7100000000000000000000000000000000000000000000000000000000600052602160045260246000fd5b600381111561246b577f4e487b7100000000000000000000000000000000000000000000000000000000600052602160045260246000fd5b815260200190815260200160002090506000818054905067ffffffffffffffff8111156124c1577f4e487b7100000000000000000000000000000000000000000000000000000000600052604160045260246000fd5b6040519080825280602002602001820160405280156124fa57816020015b6124e761359f565b8152602001906001900390816124df5790505b50905060005b828054905081101561267c57828181548110612545577f4e487b7100000000000000000000000000000000000000000000000000000000600052603260045260246000fd5b90600052602060002090600302016040518060800160405290816000820160009054906101000a900460ff161515151581526020016000820160019054906101000a900460ff1660038111156125c4577f4e487b7100000000000000000000000000000000000000000000000000000000600052602160045260246000fd5b60038111156125fc577f4e487b7100000000000000000000000000000000000000000000000000000000600052602160045260246000fd5b8152602001600182015481526020016002820160009054906101000a900460ff16151515158152505082828151811061265e577f4e487b7100000000000000000000000000000000000000000000000000000000600052603260045260246000fd5b602002602001018190525080806126749061461e565b915050612500565b50809250505092915050565b60008054906101000a900473ffffffffffffffffffffffffffffffffffffffff1673ffffffffffffffffffffffffffffffffffffffff163373ffffffffffffffffffffffffffffffffffffffff1614612716576040517f08c379a000000000000000000000000000000000000000000000000000000000815260040161270d9061421f565b60405180910390fd5b600760008273ffffffffffffffffffffffffffffffffffffffff1673ffffffffffffffffffffffffffffffffffffffff16815260200190815260200160002060010160019054906101000a900460ff166127a5576040517f08c379a000000000000000000000000000000000000000000000000000000000815260040161279c9061425f565b60405180910390fd5b600760008273ffffffffffffffffffffffffffffffffffffffff1673ffffffffffffffffffffffffffffffffffffffff168152602001908152602001600020600080820160006127f591906134d9565b6001820160006101000a81549060ff02191690556001820160016101000a81549060ff021916905550506000600a60008373ffffffffffffffffffffffffffffffffffffffff1673ffffffffffffffffffffffffffffffffffffffff16815260200190815260200160002060006101000a81548160ff02191690831515021790555060005b600580549050811015612a9c578173ffffffffffffffffffffffffffffffffffffffff16600582815481106128d8577f4e487b7100000000000000000000000000000000000000000000000000000000600052603260045260246000fd5b9060005260206000200160009054906101000a900473ffffffffffffffffffffffffffffffffffffffff1673ffffffffffffffffffffffffffffffffffffffff161415612a89576005600160058054905061293391906144df565b8154811061296a577f4e487b7100000000000000000000000000000000000000000000000000000000600052603260045260246000fd5b9060005260206000200160009054906101000a900473ffffffffffffffffffffffffffffffffffffffff16600582815481106129cf577f4e487b7100000000000000000000000000000000000000000000000000000000600052603260045260246000fd5b9060005260206000200160006101000a81548173ffffffffffffffffffffffffffffffffffffffff021916908373ffffffffffffffffffffffffffffffffffffffff1602179055506005805480612a4f577f4e487b7100000000000000000000000000000000000000000000000000000000600052603160045260246000fd5b6001900381819060005260206000200160006101000a81549073ffffffffffffffffffffffffffffffffffffffff02191690559055612a9c565b8080612a949061461e565b91505061287a565b5060016000815480929190612ab0906145c2565b919050555050565b60068181548110612ac857600080fd5b906000526020600020016000915054906101000a900473ffffffffffffffffffffffffffffffffffffffff1681565b6040518060600160405280838152602001826003811115612b41577f4e487b7100000000000000000000000000000000000000000000000000000000600052602160045260246000fd5b815260200160011515815250600860003373ffffffffffffffffffffffffffffffffffffffff1673ffffffffffffffffffffffffffffffffffffffff1681526020019081526020016000206000820151816000019080519060200190612ba8929190613519565b5060208201518160010160006101000a81548160ff02191690836003811115612bfa577f4e487b7100000000000000000000000000000000000000000000000000000000600052602160045260246000fd5b021790555060408201518160010160016101000a81548160ff0219169083151502179055509050506006339080600181540180825580915050600190039060005260206000200160009091909190916101000a81548173ffffffffffffffffffffffffffffffffffffffff021916908373ffffffffffffffffffffffffffffffffffffffff16021790555060026000815480929190612c989061461e565b91905055507fd0279fc6af44cae89320e43efb9a695b3185662c6ada09288e9d440caa4543a6338383604051612cd093929190614033565b60405180910390a15050565b6000600d6000836003811115612d1b577f4e487b7100000000000000000000000000000000000000000000000000000000600052602160045260246000fd5b6003811115612d53577f4e487b7100000000000000000000000000000000000000000000000000000000600052602160045260246000fd5b8152602001908152602001600020549050919050565b600b6020528060005260406000206000915054906101000a900460ff1681565b60008054906101000a900473ffffffffffffffffffffffffffffffffffffffff1673ffffffffffffffffffffffffffffffffffffffff163373ffffffffffffffffffffffffffffffffffffffff1614612e17576040517f08c379a0000000000000000000000000000000000000000000000000000000008152600401612e0e9061421f565b60405180910390fd5b600960008473ffffffffffffffffffffffffffffffffffffffff1673ffffffffffffffffffffffffffffffffffffffff16815260200190815260200160002060010160149054906101000a900460ff1615612ea7576040517f08c379a0000000000000000000000000000000000000000000000000000000008152600401612e9e9061435f565b60405180910390fd5b60405180606001604052808381526020018273ffffffffffffffffffffffffffffffffffffffff16815260200160011515815250600960008573ffffffffffffffffffffffffffffffffffffffff1673ffffffffffffffffffffffffffffffffffffffff1681526020019081526020016000206000820151816000019080519060200190612f36929190613519565b5060208201518160010160006101000a81548173ffffffffffffffffffffffffffffffffffffffff021916908373ffffffffffffffffffffffffffffffffffffffff16021790555060408201518160010160146101000a81548160ff02191690831515021790555090505060036000815480929190612fb49061461e565b91905055507fa2c0805b2d96cb9d515bef0880a6f601672ee7dd7b3f3b29e86c9b552e4661c8838383604051612fec93929190613ff5565b60405180910390a1505050565b60007fb59f440754e07ccf4f8158d21ab17643d0854c21b74aaffee912ad01931b22833360405161302a9190613f5e565b60405180910390a16001905090565b600760205280600052604060002060009150905080600001805461305c906145ec565b80601f0160208091040260200160405190810160405280929190818152602001828054613088906145ec565b80156130d55780601f106130aa576101008083540402835291602001916130d5565b820191906000526020600020905b8154815290600101906020018083116130b857829003601f168201915b5050505050908060010160009054906101000a900460ff16908060010160019054906101000a900460ff16905083565b60008054906101000a900473ffffffffffffffffffffffffffffffffffffffff1673ffffffffffffffffffffffffffffffffffffffff163373ffffffffffffffffffffffffffffffffffffffff1614613193576040517f08c379a000000000000000000000000000000000000000000000000000000000815260040161318a9061421f565b60405180910390fd5b600860008473ffffffffffffffffffffffffffffffffffffffff1673ffffffffffffffffffffffffffffffffffffffff16815260200190815260200160002060010160019054906101000a900460ff1615613223576040517f08c379a000000000000000000000000000000000000000000000000000000000815260040161321a9061427f565b60405180910390fd5b604051806060016040528083815260200182600381111561326d577f4e487b7100000000000000000000000000000000000000000000000000000000600052602160045260246000fd5b815260200160011515815250600860008573ffffffffffffffffffffffffffffffffffffffff1673ffffffffffffffffffffffffffffffffffffffff16815260200190815260200160002060008201518160000190805190602001906132d4929190613519565b5060208201518160010160006101000a81548160ff02191690836003811115613326577f4e487b7100000000000000000000000000000000000000000000000000000000600052602160045260246000fd5b021790555060408201518160010160016101000a81548160ff021916908315150217905550905050600260008154809291906133619061461e565b91905055507fd0279fc6af44cae89320e43efb9a695b3185662c6ada09288e9d440caa4543a683838360405161339993929190614033565b60405180910390a1505050565b60025481565b600c6020528060005260406000206000915054906101000a900460ff1681565b60096020528060005260406000206000915090508060000180546133ef906145ec565b80601f016020809104026020016040519081016040528092919081815260200182805461341b906145ec565b80156134685780601f1061343d57610100808354040283529160200191613468565b820191906000526020600020905b81548152906001019060200180831161344b57829003601f168201915b5050505050908060010160009054906101000a900473ffffffffffffffffffffffffffffffffffffffff16908060010160149054906101000a900460ff16905083565b6000600454905090565b60008054906101000a900473ffffffffffffffffffffffffffffffffffffffff1681565b5080546134e5906145ec565b6000825580601f106134f75750613516565b601f0160209004906000526020600020908101906135159190613603565b5b50565b828054613525906145ec565b90600052602060002090601f016020900481019282613547576000855561358e565b82601f1061356057805160ff191683800117855561358e565b8280016001018555821561358e579182015b8281111561358d578251825591602001919060010190613572565b5b50905061359b9190613603565b5090565b6040518060800160405280600015158152602001600060038111156135ed577f4e487b7100000000000000000000000000000000000000000000000000000000600052602160045260246000fd5b8152602001600081526020016000151581525090565b5b8082111561361c576000816000905550600101613604565b5090565b600061363361362e846143cb565b61439a565b90508281526020810184848401111561364b57600080fd5b613656848285614580565b509392505050565b60008135905061366d81614748565b92915050565b6000813590506136828161475f565b92915050565b60008135905061369781614776565b92915050565b600082601f8301126136ae57600080fd5b81356136be848260208601613620565b91505092915050565b6000813590506136d681614786565b92915050565b6000602082840312156136ee57600080fd5b60006136fc8482850161365e565b91505092915050565b6000806040838503121561371857600080fd5b60006137268582860161365e565b925050602061373785828601613688565b9150509250929050565b60008060006060848603121561375657600080fd5b60006137648682870161365e565b935050602061377586828701613688565b925050604061378686828701613673565b9150509250925092565b6000806000606084860312156137a557600080fd5b60006137b38682870161365e565b93505060206137c486828701613688565b92505060406137d5868287016136c7565b9150509250925092565b6000806000606084860312156137f457600080fd5b60006138028682870161365e565b935050602084013567ffffffffffffffff81111561381f57600080fd5b61382b8682870161369d565b925050604061383c8682870161365e565b9150509250925092565b60008060006060848603121561385b57600080fd5b60006138698682870161365e565b935050602084013567ffffffffffffffff81111561388657600080fd5b6138928682870161369d565b92505060406138a386828701613688565b9150509250925092565b600080604083850312156138c057600080fd5b60006138ce8582860161365e565b92505060206138df858286016136c7565b9150509250929050565b6000602082840312156138fb57600080fd5b600061390984828501613688565b91505092915050565b6000806040838503121561392557600080fd5b600061393385828601613688565b9250506020613944858286016136c7565b9150509250929050565b6000806040838503121561396157600080fd5b600083013567ffffffffffffffff81111561397b57600080fd5b6139878582860161369d565b925050602061399885828601613688565b9150509250929050565b6000602082840312156139b457600080fd5b60006139c2848285016136c7565b91505092915050565b60006139d783836139fb565b60208301905092915050565b60006139ef8383613e96565b60808301905092915050565b613a0481614513565b82525050565b613a1381614513565b82525050565b6000613a248261441b565b613a2e8185614456565b9350613a39836143fb565b8060005b83811015613a6a578151613a5188826139cb565b9750613a5c8361443c565b925050600181019050613a3d565b5085935050505092915050565b6000613a8282614426565b613a8c8185614467565b9350613a978361440b565b8060005b83811015613ac8578151613aaf88826139e3565b9750613aba83614449565b925050600181019050613a9b565b5085935050505092915050565b613ade81614525565b82525050565b613aed81614525565b82525050565b613afc8161456e565b82525050565b613b0b8161456e565b82525050565b6000613b1c82614431565b613b268185614478565b9350613b3681856020860161458f565b613b3f81614723565b840191505092915050565b6000613b57601f83614478565b91507f4e6f20626c6f6f6420646f6e6174696f6e207265717565737420666f756e64006000830152602082019050919050565b6000613b97602683614478565b91507f4f6e6c79207468652061646d696e2063616e20706572666f726d20746869732060008301527f616374696f6e00000000000000000000000000000000000000000000000000006020830152604082019050919050565b6000613bfd601c83614478565b91507f446f6e6f7220616c726561647920686173207065726d697373696f6e000000006000830152602082019050919050565b6000613c3d601483614478565b91507f446f6e6f72206e6f7420726567697374657265640000000000000000000000006000830152602082019050919050565b6000613c7d601a83614478565b91507f50617469656e7420616c726561647920726567697374657265640000000000006000830152602082019050919050565b6000613cbd602783614478565b91507f596f75206e65656420746f20726567697374657220617320612070617469656e60008301527f74206669727374000000000000000000000000000000000000000000000000006020830152604082019050919050565b6000613d23601683614478565b91507f50617469656e74206e6f742072656769737465726564000000000000000000006000830152602082019050919050565b6000613d63601783614478565b91507f486f73706974616c206e6f7420726567697374657265640000000000000000006000830152602082019050919050565b6000613da3602083614478565b91507f50617469656e7420646f6573206e6f742068617665207065726d697373696f6e6000830152602082019050919050565b6000613de3601e83614478565b91507f446f6e6f7220646f6573206e6f742068617665207065726d697373696f6e00006000830152602082019050919050565b6000613e23601e83614478565b91507f50617469656e7420616c726561647920686173207065726d697373696f6e00006000830152602082019050919050565b6000613e63601b83614478565b91507f486f73706974616c20616c7265616479207265676973746572656400000000006000830152602082019050919050565b608082016000820151613eac6000850182613ad5565b506020820151613ebf6020850182613af3565b506040820151613ed26040850182613f40565b506060820151613ee56060850182613ad5565b50505050565b608082016000820151613f016000850182613ad5565b506020820151613f146020850182613af3565b506040820151613f276040850182613f40565b506060820151613f3a6060850182613ad5565b50505050565b613f4981614564565b82525050565b613f5881614564565b82525050565b6000602082019050613f736000830184613a0a565b92915050565b6000608082019050613f8e6000830187613a0a565b613f9b6020830186613ae4565b613fa86040830185613b02565b613fb56060830184613f4f565b95945050505050565b6000606082019050613fd36000830186613a0a565b613fe06020830185613b02565b613fed6040830184613f4f565b949350505050565b600060608201905061400a6000830186613a0a565b818103602083015261401c8185613b11565b905061402b6040830184613a0a565b949350505050565b60006060820190506140486000830186613a0a565b818103602083015261405a8185613b11565b90506140696040830184613b02565b949350505050565b600060a0820190506140866000830185613a0a565b6140936020830184613eeb565b9392505050565b600060408201905081810360008301526140b48185613a19565b905081810360208301526140c88184613a19565b90509392505050565b600060208201905081810360008301526140eb8184613a77565b905092915050565b60006020820190506141086000830184613ae4565b92915050565b60006080820190506141236000830187613ae4565b6141306020830186613b02565b61413d6040830185613f4f565b61414a6060830184613ae4565b95945050505050565b6000604082019050818103600083015261416d8185613b11565b905061417c6020830184613a0a565b9392505050565b6000606082019050818103600083015261419d8186613b11565b90506141ac6020830185613a0a565b6141b96040830184613ae4565b949350505050565b600060608201905081810360008301526141db8186613b11565b90506141ea6020830185613b02565b6141f76040830184613ae4565b949350505050565b6000602082019050818103600083015261421881613b4a565b9050919050565b6000602082019050818103600083015261423881613b8a565b9050919050565b6000602082019050818103600083015261425881613bf0565b9050919050565b6000602082019050818103600083015261427881613c30565b9050919050565b6000602082019050818103600083015261429881613c70565b9050919050565b600060208201905081810360008301526142b881613cb0565b9050919050565b600060208201905081810360008301526142d881613d16565b9050919050565b600060208201905081810360008301526142f881613d56565b9050919050565b6000602082019050818103600083015261431881613d96565b9050919050565b6000602082019050818103600083015261433881613dd6565b9050919050565b6000602082019050818103600083015261435881613e16565b9050919050565b6000602082019050818103600083015261437881613e56565b9050919050565b60006020820190506143946000830184613f4f565b92915050565b6000604051905081810181811067ffffffffffffffff821117156143c1576143c06146f4565b5b8060405250919050565b600067ffffffffffffffff8211156143e6576143e56146f4565b5b601f19601f8301169050602081019050919050565b6000819050602082019050919050565b6000819050602082019050919050565b600081519050919050565b600081519050919050565b600081519050919050565b6000602082019050919050565b6000602082019050919050565b600082825260208201905092915050565b600082825260208201905092915050565b600082825260208201905092915050565b600061449482614564565b915061449f83614564565b9250827fffffffffffffffffffffffffffffffffffffffffffffffffffffffffffffffff038211156144d4576144d3614667565b5b828201905092915050565b60006144ea82614564565b91506144f583614564565b92508282101561450857614507614667565b5b828203905092915050565b600061451e82614544565b9050919050565b60008115159050919050565b600081905061453f82614734565b919050565b600073ffffffffffffffffffffffffffffffffffffffff82169050919050565b6000819050919050565b600061457982614531565b9050919050565b82818337600083830152505050565b60005b838110156145ad578082015181840152602081019050614592565b838111156145bc576000848401525b50505050565b60006145cd82614564565b915060008214156145e1576145e0614667565b5b600182039050919050565b6000600282049050600182168061460457607f821691505b60208210811415614618576146176146c5565b5b50919050565b600061462982614564565b91507fffffffffffffffffffffffffffffffffffffffffffffffffffffffffffffffff82141561465c5761465b614667565b5b600182019050919050565b7f4e487b7100000000000000000000000000000000000000000000000000000000600052601160045260246000fd5b7f4e487b7100000000000000000000000000000000000000000000000000000000600052602160045260246000fd5b7f4e487b7100000000000000000000000000000000000000000000000000000000600052602260045260246000fd5b7f4e487b7100000000000000000000000000000000000000000000000000000000600052604160045260246000fd5b6000601f19601f8301169050919050565b6004811061474557614744614696565b5b50565b61475181614513565b811461475c57600080fd5b50565b61476881614525565b811461477357600080fd5b50565b6004811061478357600080fd5b50565b61478f81614564565b811461479a57600080fd5b5056fea26469706673582212205b78fc8a3516eeb67d55cd785cb24411d7a4c2713b5d8c572a91e1fcc2f1b13564736f6c63430008000033",
  "immutableReferences": {},
  "source": "// SPDX-License-Identifier: MIT\npragma solidity ^0.8.0;\n\ncontract BloodBank {\n    address public admin;\n    uint public totalDonors;\n    uint public totalPatients;\n    uint public totalHospitals;\n    uint public totalBloodDonated;\n\n    address[] public donorAddresses;\n    address[] public patientAddresses;\n\n    enum BloodType { A, B, AB, O }\n\n    struct Donor {\n        string name;\n        BloodType bloodType;\n        bool isRegistered;\n    }\n\n    struct Patient {\n        string name;\n        BloodType bloodType;\n        bool isRegistered;\n    }\n\n    struct Hospital {\n        string name;\n        address location;\n        bool isRegistered;\n    }\n\n    struct Request {\n    bool isResponded;\n    BloodType bloodType;\n    uint amount;\n    bool response;\n   }\n\n   \n    mapping(address => Donor) public donors;\n    mapping(address => Patient) public patients;\n    mapping(address => Hospital) public hospitals;\n    mapping(address => bool) public allowedDonors;\n    mapping(address => bool) public allowedPatients;\n    mapping(address => bool) public bloodRequests;\n    mapping(BloodType => uint) public bloodInventory;\n    mapping(address => mapping(BloodType => uint)) public donorBalances;\n    mapping(address => mapping(BloodType => Request[])) public patientRequests;\n    mapping(address => Request[]) public patientResponses; // Add mapping to store responses\n\n    event AdminLoggedIn(address admin);\n    event DonorRegistered(address donor, string name, BloodType bloodType);\n    event PatientRegistered(address patient, string name, BloodType bloodType);\n    event HospitalRegistered(address hospital, string name, address location);\n    event BloodDonated(address donor, BloodType bloodType, uint amount);\n    event BloodRequested(address patient, BloodType bloodType);\n    event DonorPermissionGranted(address donor);\n    event DonorPermissionRevoked(address donor);\n    event PatientPermissionGranted(address patient);\n    event PatientPermissionRevoked(address patient);\n    event RequestResponded(address patient, bool response, BloodType bloodType, uint amount);\n    event BloodRequested(address patient, Request request);\n\n    modifier isAdmin() {\n        require(msg.sender == admin, \"Only the admin can perform this action\");\n        _;\n    }\n    modifier onlyAdminOrPatient() {\n        require(msg.sender == admin || allowedPatients[msg.sender], \"Permission denied\");\n        _;\n    }\n\n    constructor() {\n        admin = msg.sender;\n    }\n\n    function adminLogin() public returns (bool) {\n        emit AdminLoggedIn(msg.sender);\n        return true;\n    }\n\n    function grantDonorPermission(address donorAddress) public {\n        require(!allowedDonors[donorAddress], \"Donor already has permission\");\n        allowedDonors[donorAddress] = true;\n        emit DonorPermissionGranted(donorAddress);\n    }\n\n    function revokeDonorPermission(address donorAddress) public {\n        require(allowedDonors[donorAddress], \"Donor does not have permission\");\n        allowedDonors[donorAddress] = false;\n        emit DonorPermissionRevoked(donorAddress);\n    }\n\n    function isDonorAllowed(address donorAddress) public view returns (bool) {\n        return allowedDonors[donorAddress];\n    }\n\n    function grantPatientPermission(address patientAddress) public {\n        require(!allowedPatients[patientAddress], \"Patient already has permission\");\n        allowedPatients[patientAddress] = true;\n        emit PatientPermissionGranted(patientAddress);\n    }\n\n    function revokePatientPermission(address patientAddress) public {\n        require(allowedPatients[patientAddress], \"Patient does not have permission\");\n        allowedPatients[patientAddress] = false;\n        emit PatientPermissionRevoked(patientAddress);\n    }\n\n    function isPatientAllowed(address patientAddress) public view returns (bool) {\n        return allowedPatients[patientAddress];\n    }\n\n    function addPatient(address patientAddress, string memory name, BloodType bloodType) public isAdmin {\n        require(!patients[patientAddress].isRegistered, \"Patient already registered\");\n        patients[patientAddress] = Patient(name, bloodType, true);\n        totalPatients++;\n        emit PatientRegistered(patientAddress, name, bloodType);\n    }\n\n    function addHospital(address hospitalAddress, string memory name, address location) public isAdmin {\n        require(!hospitals[hospitalAddress].isRegistered, \"Hospital already registered\");\n        hospitals[hospitalAddress] = Hospital(name, location, true);\n        totalHospitals++;\n        emit HospitalRegistered(hospitalAddress, name, location);\n    }\n\n    function registerAsDonor(string memory name, BloodType bloodType) public {\n        donors[msg.sender] = Donor(name, bloodType, true);\n        donorAddresses.push(msg.sender);\n        totalDonors++;\n        emit DonorRegistered(msg.sender, name, bloodType);\n    }\n\n    function registerAsPatient(string memory name, BloodType bloodType) public {\n        patients[msg.sender] = Patient(name, bloodType, true);\n        patientAddresses.push(msg.sender);\n        totalPatients++;\n        emit PatientRegistered(msg.sender, name, bloodType);\n    }\n\n    function locateHospitalToDonate(address hospitalAddress) public view returns (string memory name, address location) {\n        require(hospitals[hospitalAddress].isRegistered, \"Hospital not registered\");\n        return (hospitals[hospitalAddress].name, hospitals[hospitalAddress].location);\n    }\n    function donateBlood(BloodType bloodType, uint amount) public {\n    require(donors[msg.sender].isRegistered, \"Donor not registered\");       \n    // Assuming a simplified storage for blood donation amounts\n    donorBalances[msg.sender][bloodType]++;\n    totalBloodDonated += amount;  // Increment the total blood donated\n    emit BloodDonated(msg.sender, bloodType, amount);\n}\n\n    // Function to get the total amount of blood donated\n    function getTotalBloodDonated() public view returns (uint) {\n        return totalBloodDonated;\n    }\n\n    // Function to get the blood inventory for a specific blood type\n    function getBloodInventory(BloodType bloodType) public view returns (uint) {\n        return bloodInventory[bloodType];\n    }\n\nfunction requestBlood(BloodType bloodType, uint amount) public {\n    require(patients[msg.sender].isRegistered, \"You need to register as a patient first\");\n    // Create a new request object\n    Request memory newRequest = Request({\n        isResponded: false,\n        bloodType: bloodType,\n        amount: amount,\n        response: false\n    });\n    // Add the request to the patient's requests\n    patientRequests[msg.sender][newRequest.bloodType].push(newRequest);\n    // Emit blood request event with the entire request object\n    emit BloodRequested(msg.sender, newRequest);\n}\n\nfunction getPatientRequests(address patientAddress, BloodType bloodType) public view returns (Request[] memory) {\n    Request[] storage requests = patientRequests[patientAddress][bloodType];\n    Request[] memory result = new Request[](requests.length);\n    for (uint i = 0; i < requests.length; i++) {\n        result[i] = requests[i];\n    }\n    return result;\n}\n\n function respondToRequest(address patientAddress, BloodType bloodType, bool response) public {\n    require(patients[patientAddress].isRegistered, \"Patient not registered\");\n    require(patientRequests[patientAddress][bloodType].length > 0, \"No blood donation request found\");\n\n    // Get the last request made by the patient\n    Request storage lastRequest = patientRequests[patientAddress][bloodType][patientRequests[patientAddress][bloodType].length - 1];\n\n    // Update the response for the last request\n    lastRequest.isResponded = true;\n    lastRequest.response = response;\n\n    // Store the response\n    patientResponses[patientAddress].push(lastRequest);\n\n    // Emit event for responding to blood donation request\n    emit RequestResponded(patientAddress, response, lastRequest.bloodType, lastRequest.amount);\n}\n\n    // Add a function to retrieve patient responses\n    function getPatientResponses(address patientAddress) public view returns (Request[] memory) {\n        return patientResponses[patientAddress];\n    }\n        function getRegisteredUsers() public view returns (address[] memory registeredDonors, address[] memory registeredPatients) {\n        return (donorAddresses, patientAddresses);\n    }\n\n    // Function to remove a donor\n    function removeDonor(address donorAddress) public isAdmin {\n        require(donors[donorAddress].isRegistered, \"Donor not registered\");\n        \n        // Remove from donors mapping\n        delete donors[donorAddress];\n        \n        // Remove from allowed donors\n        allowedDonors[donorAddress] = false;\n        \n        // Remove from donorAddresses array\n        for (uint i = 0; i < donorAddresses.length; i++) {\n            if (donorAddresses[i] == donorAddress) {\n                donorAddresses[i] = donorAddresses[donorAddresses.length - 1];\n                donorAddresses.pop();\n                break;\n            }\n        }\n        \n        totalDonors--;\n    }\n\n    // Function to remove a patient\n    function removePatient(address patientAddress) public isAdmin {\n        require(patients[patientAddress].isRegistered, \"Patient not registered\");\n        \n        // Remove from patients mapping\n        delete patients[patientAddress];\n        \n        // Remove from allowed patients\n        allowedPatients[patientAddress] = false;\n        \n        // Remove from patientAddresses array\n        for (uint i = 0; i < patientAddresses.length; i++) {\n            if (patientAddresses[i] == patientAddress) {\n                patientAddresses[i] = patientAddresses[patientAddresses.length - 1];\n                patientAddresses.pop();\n                break;\n            }\n        }\n        \n        totalPatients--;\n    }\n}\n\n",
  "sourcePath": "/home/anvitha/Desktop/BloodBank/BloodBank/contracts/BloodBank.sol",
  "compiler": {
    "name": "solc",
    "version": "0.8.0+commit.c7dfd78e.Emscripten.clang"
  },
  "schemaVersion": "3.4.16",
  "updatedAt": "2025-06-09T17:58:26.098Z",
  "networkType": "ethereum",
  "devdoc": {
    "kind": "dev",
    "methods": {},
    "version": 1
  },
  "userdoc": {
    "kind": "user",
    "methods": {},
    "version": 1
  }
}